:020000040800F2
:1000000000280020DD1B0008B5190008BB190008F6
:10001000C1190008C7190008CD1900080000000028
:10002000000000000000000000000000D3190008DC
:10003000DF19000800000000EB190008F71900089C
:10004000251C0008251C0008251C0008251C00088C
:10005000251C0008251C0008251C0008251C00087C
:10006000251C0008251C0008251C0008251C00086C
:10007000251C0008251C0008251C0008251C00085C
:10008000251C0008251C0008251C0008251C00084C
:10009000251C0008251C0008251C0008251C00083C
:1000A000251C0008251C0008251C0008251C00082C
:1000B000051A0008251C000800000000251C000887
:1000C000251C00080000000000000000251C00089E
:1000D00000000000251C0008251C0008000000008E
:1000E000251C0008251C0008251C00080000000035
:1000F0000000000000000000000000000000000000
:0C01000000000000000000005FF808F1A3
:10010C0010B5054C237833B9044B13B10448AFF345
:10011C0000800123237010BD580000200000000057
:10012C007C32000808B5034B1BB103490348AFF3FD
:10013C00008008BD000000005C0000207C3200083C
:10014C0080B483B000AF7860044A7B68012142F828
:10015C00231000BF0C37BD4680BC704774000020D4
:10016C0080B582B000AF00237B6099E0514A7B6878
:10017C0052F8232050497B6841F823204F4A7B6872
:10018C0052F823204B497B6841F823207B68002BD5
:10019C0009D108214A4802F02BF803461946474A70
:1001AC007B6842F823107B68012B09D1102144484D
:1001BC0002F01EF803461946404A7B6842F82310A9
:1001CC007B68022B09D120213D4802F011F803462F
:1001DC0019463A4A7B6842F82310364A7B6852F833
:1001EC00232036497B6851F823309A4255D1314A45
:1001FC007B6852F8232030497B6851F823309A42AF
:10020C004BD12D4A7B6852F823202E497B6851F83C
:10021C0023309A421CD0284A7B6852F82320294963
:10022C007B6841F82320274A7B6852F82330002B47
:10023C0008D1254A7B68642142F823107868FFF7BF
:10024C007FFF2AE0214A7B68002142F8231024E03A
:10025C001D4A7B6852F823305A1E1B497B6841F8B3
:10026C002320194A7B6852F82330002B15D1154AEC
:10027C007B6852F82330002B05D1144A7B6801218E
:10028C0042F8231004E0114A7B68002142F8231045
:10029C000D4A7B68642142F823107B6801337B6034
:1002AC007B68022B7FF762AF00BF00BF0837BD46EB
:1002BC0080BD00BF0C0000201800002000000020B2
:1002CC0000080140240000203000002080000020A5
:1002DC0080B582B000AF78607B68092B00F280811A
:1002EC0001A252F823F000BF1D03000865030008AB
:1002FC00AD030008F50300083D0400088504000860
:10030C00CD040008150500085D050008A5050008CA
:10031C0000220121B54801F082FF00220221B348DE
:10032C0001F07DFF00220421B04801F078FF00228B
:10033C000821AE4801F073FF00221021AB4801F0F8
:10034C006EFF00222021A94801F069FF0122402103
:10035C00A64801F064FF44E101220121A34801F009
:10036C005EFF00220221A14801F059FF0022042166
:10037C009E4801F054FF012208219C4801F04FFFD8
:10038C0001221021994801F04AFF012220219748AF
:10039C0001F045FF01224021944801F040FF20E18B
:1003AC0000220121914801F03AFF002202218F48DE
:1003BC0001F035FF012204218C4801F030FF0022AE
:1003CC0008218A4801F02BFF00221021874801F0F8
:1003DC0026FF01222021854801F021FF0022402127
:1003EC00824801F01CFFFCE0002201217F4801F053
:1003FC0016FF002202217D4801F011FF002204218A
:10040C007A4801F00CFF00220821784801F007FF20
:10041C0001221021754801F002FF012220217348AE
:10042C0001F0FDFE00224021704801F0F8FED8E0FA
:10043C00012201216D4801F0F2FE002202216B48DD
:10044C0001F0EDFE00220421684801F0E8FE0122D3
:10045C000821664801F0E3FE01221021634801F0F7
:10046C00DEFE00222021614801F0D9FE002240214D
:10047C005E4801F0D4FEB4E0002201215B4801F09B
:10048C00CEFE01220221594801F0C9FE00220421AE
:10049C00564801F0C4FE00220821544801F0BFFE6A
:1004AC0001221021514801F0BAFE002220214F48B0
:1004BC0001F0B5FE002240214C4801F0B0FE90E066
:1004CC0000220121494801F0AAFE012202214748DD
:1004DC0001F0A5FE00220421444801F0A0FE0022F8
:1004EC000821424801F09BFE002210213F4801F0F8
:1004FC0096FE002220213D4801F091FE0022402171
:10050C003A4801F08CFE6CE000220121374801F0E2
:10051C0086FE00220221354801F081FE00220421D2
:10052C00324801F07CFE01220821304801F077FEB0
:10053C00012210212D4801F072FE012220212B48AE
:10054C0001F06DFE01224021284801F068FE48E0D0
:10055C0000220121254801F062FE002202212348DD
:10056C0001F05DFE00220421204801F058FE00221B
:10057C0008211E4801F053FE002210211B4801F0F7
:10058C004EFE00222021194801F049FE0022402194
:10059C00164801F044FE24E000220121134801F02A
:1005AC003EFE00220221114801F039FE00220421F6
:1005BC000E4801F034FE002208210C4801F02FFEF9
:1005CC0001221021094801F02AFE002220210748AF
:1005DC0001F025FE00224021044801F020FE00E03D
:1005EC0000BF00BF0837BD4680BD00BF000C0140F6
:1005FC0080B582B000AF78607B68092B00F2BC81BB
:10060C0001A252F823F000BF3D0600089106000835
:10061C00E5060008390700088D070008E107000807
:10062C003508000889080008DD08000831090008B1
:10063C0000228021D34801F0F2FD00224FF480719A
:10064C00D04801F0ECFD00224FF40071CD4801F0D0
:10065C00E6FD00224FF48061CA4801F0E0FD002263
:10066C004FF40061C74801F0DAFD00224FF48051CD
:10067C00C44801F0D4FD01224FF40051C14801F0EF
:10068C00CEFD7AE101228021BE4801F0C8FD002296
:10069C004FF48071BB4801F0C2FD00224FF4007191
:1006AC00B84801F0BCFD01224FF48061B54801F05F
:1006BC00B6FD01224FF40061B24801F0B0FD0122F9
:1006CC004FF48051AF4801F0AAFD01224FF40051C4
:1006DC00AC4801F0A4FD50E100228021A94801F0B2
:1006EC009EFD00224FF48071A64801F098FD012276
:1006FC004FF40071A34801F092FD00224FF4806189
:10070C00A04801F08CFD00224FF400619D4801F0DF
:10071C0086FD01224FF480519A4801F080FD0022A1
:10072C004FF40051974801F07AFD26E10022802118
:10073C00944801F074FD00224FF48071914801F04F
:10074C006EFD00224FF400718E4801F068FD00220E
:10075C004FF480618B4801F062FD01224FF400617F
:10076C00884801F05CFD01224FF48051854801F06E
:10077C0056FD00224FF40051824801F050FDFCE080
:10078C00012280217F4801F04AFD00224FF4807144
:10079C007C4801F044FD00224FF40071794801F0CF
:1007AC003EFD01224FF48061764801F038FD0122B4
:1007BC004FF40061734801F032FD00224FF4805178
:1007CC00704801F02CFD00224FF400516D4801F0EF
:1007DC0026FDD2E0002280216A4801F020FD012292
:1007EC004FF48071674801F01AFD00224FF400713C
:1007FC00644801F014FD00224FF48061614801F05F
:10080C000EFD01224FF400615E4801F008FD00224C
:10081C004FF480515B4801F002FD00224FF400516F
:10082C00584801F0FCFCA8E000228021554801F05A
:10083C00F6FC01224FF48071524801F0F0FC0022CA
:10084C004FF400714F4801F0EAFC00224FF4806134
:10085C004C4801F0E4FC00224FF40061494801F0DF
:10086C00DEFC00224FF48051464801F0D8FC0022F7
:10087C004FF40051434801F0D2FC7EE0002280216D
:10088C00404801F0CCFC00224FF480713D4801F04F
:10089C00C6FC00224FF400713A4801F0C0FC012262
:1008AC004FF48061374801F0BAFC01224FF400612B
:1008BC00344801F0B4FC01224FF48051314801F06E
:1008CC00AEFC01224FF400512E4801F0A8FC54E07C
:1008DC00002280212B4801F0A2FC00224FF48071F1
:1008EC00284801F09CFC00224FF40071254801F0CF
:1008FC0096FC00224FF48061224801F090FC00220B
:10090C004FF400611F4801F08AFC00224FF4805123
:10091C001C4801F084FC00224FF40051194801F0EE
:10092C007EFC2AE000228021164801F078FC00228F
:10093C004FF48071134801F072FC00224FF40071E7
:10094C00104801F06CFC00224FF480610D4801F05E
:10095C0066FC01224FF400610A4801F060FC0022A1
:10096C004FF48051074801F05AFC00224FF400511B
:10097C00044801F054FC00E000BF00BF0837BD463E
:10098C0080BD00BF000C014080B500AF4F4B1B6811
:10099C00042B00F2908001A252F823F0BD0900084C
:1009AC00D1090008090A0008490A0008890A000848
:1009BC0000F0D8FD454B01221A604FF47A7000F01C
:1009CC003FFF81E0424B1B68012B05D100F0F4FD89
:1009DC004FF4FA7000F034FF3E4B1B68012B6CD1C6
:1009EC003C4B00221A603C4B00221A60374B02220F
:1009FC001A604FF47A7000F023FF5EE000F0D4FE32
:100A0C00344B1B68012B0CD1324B00221A60324B39
:100A1C0000221A602D4B03221A604FF47A7000F0FA
:100A2C000FFF2C4B9B68012B49D12A4B00229A605B
:100A3C0000F0A6FE254B00221A6040E000F042F9BF
:100A4C00244B1B68012B0CD1224B00221A60224B29
:100A5C0000221A601D4B04221A604FF47A7000F0C9
:100A6C00EFFE1C4B9B68012B2BD11A4B00229A607A
:100A7C0000F0FCF8154B00221A6022E001F094F80B
:100A8C00144B1B68012B09D1124B00221A600F4B1F
:100A9C0000221A604FF47A7000F0D2FE0D4B9B6866
:100AAC00012B10D10B4B00229A6000F0DFF8074BA2
:100ABC0000221A6007E000BF06E000BF04E000BFA0
:100ACC0002E000BF00E000BF00BF80BD8C00002032
:100ADC00C8000020740000209000002080B500AFFA
:100AEC001D4B1B68002B26D11B4B01221A600022C8
:100AFC004FF48061194801F092FB00224FF4005131
:100B0C00164801F08CFB00224FF40061134801F0F1
:100B1C0086FB00224FF48051104801F080FB00222C
:100B2C004FF480410D4801F07AFB00224FF4004154
:100B3C000A4801F074FB084B1B68012B09D14FF4D8
:100B4C008051064801F083FB4FF40041034801F04B
:100B5C007EFB00BF80BD00BF90000020000801405C
:100B6C0080B500AF2E4B1B68002B23D100224021F7
:100B7C002C4801F054FB012280212A4801F04FFB44
:100B8C0000224FF48071274801F049FB01224FF4F9
:100B9C000071244801F043FB234B1B68234A82FB62
:100BAC0003129210DB17D31A1846FFF791FB0020A3
:100BBC00FFF71EFD1A4B1B68012B28D10122402187
:100BCC00184801F02CFB00228021164801F027FB6D
:100BDC0001224FF48071134801F021FB00224FF4E5
:100BEC000071104801F01BFB0F4B1A680F4B83FB75
:100BFC0002139910D317C91A0B469B000B445B00C8
:100C0C00D11A0846FFF764FB0320FFF7F1FC044BF5
:100C1C001B68C3F10103024A136000BF80BD00BF13
:100C2C0094000020000801404000002067666666C2
:100C3C0080B400AF0B4B5B68012B0ED1094B00222B
:100C4C005A60094B1B680133074A1360064B1B683B
:100C5C00632B02DD044B01221A6000BFBD4680BC31
:100C6C00704700BF740000204000002080B400AF2B
:100C7C00114B1A68114B1B681344632B09DD104B85
:100C8C0063221A600E4B1A680B4B1B68D31A0B4A63
:100C9C001360094B1A68094B1B681344632B06DC61
:100CAC00054B1A68054B1B681344054A136000BFBB
:100CBC00BD4680BC704700BF4000002044000020AF
:100CCC003C00002080B500AFFFF7B2FF064B1B685D
:100CDC00012B07D14FF4FA7000F07AFDFFF7FEFEFE
:100CEC00FFF73EFF00BF80BDB800002080B500AF0D
:100CFC0000F094FF00F018F800F09EF800F050F8A7
:100D0C00074801F0F5FE074B00221A600A2000F09C
:100D1C005FFD0A2000F078FDFFF736FEFCE700BF10
:100D2C00D00000208C00002080B590B000AF07F1FF
:100D3C00180328220021184602F092FA3B1D0022CB
:100D4C001A605A609A60DA601A610223BB6101234F
:100D5C00BB621023FB6200237B6307F11803184668
:100D6C0001F08EFA0346002B01D000F0D3F80F23CC
:100D7C007B600023BB600023FB6000233B610023EE
:100D8C007B613B1D0021184601F0FAFC0346002B49
:100D9C0001D000F0BFF800BF4037BD4680BD000059
:100DAC0080B586B000AF07F1080300221A605A60C4
:100DBC009A60DA603B4600221A605A601D4B4FF075
:100DCC0080421A601B4B41F63F725A60194B00224D
:100DDC009A60184B0A22DA60164B00221A61154BE6
:100DEC0000229A61134801F033FE0346002B01D018
:100DFC0000F090F84FF48053BB6007F108031946DC
:100E0C000C4801F0C9FF0346002B01D000F082F81A
:100E1C0000233B6000237B603B461946054802F0EB
:100E2C0091F90346002B01D000F074F800BF18377D
:100E3C00BD4680BDD000002080B586B000AF07F164
:100E4C00080300221A605A609A60DA60284B9B698A
:100E5C00274A43F004039361254B9B6903F0040379
:100E6C007B607B68224B9B69214A43F008039361AA
:100E7C001F4B9B6903F008033B603B6800224FF655
:100E8C00C0711C4801F0CBF9002243F6FF711A48DF
:100E9C0001F0C5F93823BB600023FB6001233B61E3
:100EAC0007F108031946134801F028F84FF6C073F0
:100EBC00BB600123FB6000233B6102237B6107F1D4
:100ECC00080319460B4801F019F843F6FF73BB6091
:100EDC000123FB6000233B6102237B6107F10803C4
:100EEC001946054801F00AF800BF1837BD4680BD09
:100EFC000010024000080140000C014080B582B097
:100F0C0000AF786000F0B8FCFFF72AF900BF083793
:100F1C00BD4680BD80B400AF72B600BFFEE70000D6
:100F2C0080B500AF6B4B1B68002B65D16A4B1B68FF
:100F3C000133694A1360684B1A68684B1B689A4204
:100F4C0023DA01224FF48061654801F068F9002230
:100F5C004FF40061624801F062F900224FF48051B5
:100F6C005F4801F05CF900224FF400515C4801F03D
:100F7C0056F901224FF40041594801F050F9002272
:100F8C004FF48041564801F04AF9534B1A68534BC1
:100F9C001B689A4223DB01224FF48061504801F018
:100FAC003EF900224FF400614D4801F038F900225F
:100FBC004FF480514A4801F032F900224FF40051AD
:100FCC00474801F02CF900224FF40041444801F04D
:100FDC0026F901224FF48041414801F020F93E4BA3
:100FEC001A68404B1B689A4206D13A4B01221A6090
:100FFC00394B4FF0FF321A60364B1B68012B66D110
:10100C00354B1B680133344A1360334B1A68334B2E
:10101C001B689A4223DA00224FF48061304801F0B9
:10102C00FEF800224FF400612D4801F0F8F801227F
:10103C004FF480512A4801F0F2F801224FF400518C
:10104C00274801F0ECF800224FF40041244801F04D
:10105C00E6F800224FF48041214801F0E0F81E4BE5
:10106C001A681E4B1B689A4223DB00224FF48061E6
:10107C001B4801F0D4F801224FF40061184801F02C
:10108C00CEF800224FF48051154801F0C8F8012227
:10109C004FF40051124801F0C2F800224FF4004105
:1010AC000F4801F0BCF800224FF480410C4801F0CD
:1010BC00B6F80C4B1B685A1E074B1B689A4206D19C
:1010CC00044B00221A60044B4FF0FF321A6000BF31
:1010DC0080BD00BF98000020480000204000002088
:1010EC00000801403C00002080B500AFAB4B1B68F2
:1010FC00002B4FD1AA4B1B68002B4BD10022402157
:10110C00A84801F08CF801228021A64801F087F84C
:10111C0000224FF48071A34801F081F801224FF4B2
:10112C000071A04801F07BF89F4B1A689F4B1B681D
:10113C00D31A9F4A82FB03129210DB17D31A18465C
:10114C00FFF7C6F89B4B1A689B4B1B689A420DDA4B
:10115C00994B1A68994B1B68D31A954A82FB031258
:10116C009210DB17D31A1846FFF742FA914B1A6804
:10117C00914B1B689A420DDB914B1A68914B1B6883
:10118C00D31A8B4A82FB03129210DB17D31A184620
:10119C00FFF72EFA814B1B68002B40F0AA80804B86
:1011AC001B68012B40F0A580012240217D4801F0F5
:1011BC0036F8002280217B4801F031F801224FF4EF
:1011CC008071784801F02BF800224FF400717548BB
:1011DC0001F025F8744B1A68744B1B68D21A744BC7
:1011EC0083FB02139910D317C91A0B469B000B44AF
:1011FC005B00D11A0846FFF76BF86E4B1A686E4B02
:10120C001B689A4226DA6C4B1A686C4B1B68D21A14
:10121C00674B83FB02139910D317C91A0B469B001B
:10122C000B445B00D11A0846FFF7E2F9634B1A68CE
:10123C00614B1B689A420DDA604B1B6801335F4AA5
:10124C0013605E4B1A685C4B1B689A4202DB5B4B6B
:10125C0000221A60574B1A68574B1B689A4226DBC0
:10126C00574B1A68574B1B68D21A514B83FB02130E
:10127C009910D317C91A0B469B000B445B00D11A6B
:10128C000846FFF7B5F94F4B1A684D4B1B689A424D
:10129C000DDA4C4B1B6801334A4A1360494B1A68F0
:1012AC00474B1B689A4202DB464B00221A603F4BAD
:1012BC001A683D4B1B689A420DDA3C4B1B68013394
:1012CC003A4A1360394B1A68374B1B689A4202DB57
:1012DC00364B00221A60374B1B680133354A1360BA
:1012EC00344B1A68304B1B689A4202D1314B0022A6
:1012FC001A602A4B1B68012B66D1294B1B68002BEB
:10130C0062D100224021274800F089FF0122802170
:10131C00244800F084FF00224FF48071214800F033
:10132C007EFF01224FF400711E4800F078FF1E4B27
:10133C001A681E4B1B68D31A1D4A82FB03129210AB
:10134C00DB17D31A1846FFF753F91A4B1A681A4BC6
:10135C001B689A420DDA184B1A68184B1B68D31A83
:10136C00134A82FB03129210DB17D31A1846FEF7AE
:10137C00AFFF104B1A68104B1B689A4224DB104BC2
:10138C001A68104B1B68D31A094A82FB031292107D
:10139C00DB17D31A1846FEF79BFF15E098000020C8
:1013AC00A8000020000801403C0000209C00002008
:1013BC0067666666AC00002040000020A00000209C
:1013CC0044000020A40000205B4B1B68012B40F064
:1013DC00AA805A4B1B68012B40F0A58001224021AA
:1013EC00574800F01CFF00228021554800F017FFE1
:1013FC0001224FF48071524800F011FF00224FF48B
:10140C0000714F4800F00BFF4E4B1A684E4B1B6897
:10141C00D21A4E4B83FB02139910D317C91A0B46E1
:10142C009B000B445B00D11A0846FFF7E1F8484BD0
:10143C001A68484B1B689A4226DA464B1A68464B88
:10144C001B68D21A414B83FB02139910D317C91A8C
:10145C000B469B000B445B00D11A0846FEF738FF85
:10146C003D4B1A683B4B1B689A420DDA3A4B1B6892
:10147C000133394A1360384B1A68364B1B689A4251
:10148C0002DB354B00221A60314B1A68314B1B685A
:10149C009A4226DB314B1A68314B1B68D21A2B4B04
:1014AC0083FB02139910D317C91A0B469B000B44EC
:1014BC005B00D11A0846FEF70BFF294B1A68274B25
:1014CC001B689A420DDA264B1B680133244A1360C1
:1014DC00234B1A68214B1B689A4202DB204B0022DB
:1014EC001A60194B1A68174B1B689A420DDA164B87
:1014FC001B680133144A1360134B1A68114B1B6899
:10150C009A4202DB104B00221A60114B1B6801330C
:10151C000F4A13600E4B1A680A4B1B689A4202D191
:10152C000B4B00221A60054B1B68C3F10103034AE5
:10153C00136000BF80BD00BF98000020A8000020F1
:10154C00000801403C0000209C0000206766666695
:10155C00AC00002040000020A0000020440000202F
:10156C00A400002080B400AF0C4B00221A600C4B7E
:10157C004FF0FF321A600B4B00221A600A4B00220C
:10158C001A600A4B00221A60094B00221A60094BA0
:10159C0000221A6000BFBD4680BC70479800002036
:1015AC00480000209C000020A0000020A400002087
:1015BC00A8000020AC00002080B500AF0A4B1B68CF
:1015CC00012B05D14FF47A7000F002F9FFF7A8FC5B
:1015DC00064B1B68012B05D14FF4FA7000F014F97F
:1015EC00FFF782FD00BF80BDB8000020C0000020C6
:1015FC0080B500AF1D4B1B68002B26D11B4B012265
:10160C001A6000224FF48061194800F008FE002295
:10161C004FF40051164800F002FE00224FF4006116
:10162C00134800F0FCFD00224FF48051104800F0EC
:10163C00F6FD00224FF480410D4800F0F0FD002231
:10164C004FF400410A4800F0EAFD084B1B68012BDF
:10165C0009D14FF48061064800F0F9FD4FF40051B8
:10166C00034800F0F4FD00BF80BD00BF90000020D7
:10167C000008014080B500AF2E4B1B68002B23D116
:10168C00002240212C4800F0CAFD012280212A486A
:10169C0000F0C5FD00224FF48071274800F0BFFD1B
:1016AC0001224FF40071244800F0B9FD234B1B6854
:1016BC00234A82FB03129210DB17D31A1846FEF74B
:1016CC0007FE0020FEF794FF1A4B1B68012B28D154
:1016DC0001224021184800F0A2FD0022802116486A
:1016EC0000F09DFD01224FF48071134800F097FD2E
:1016FC0000224FF40071104800F091FD0F4B1A6856
:10170C000F4B83FB02139910D317C91A0B469B007E
:10171C000B445B00D11A0846FEF7DAFD0220FEF7F7
:10172C0067FF044B1B68C3F10103024A136000BF3F
:10173C0080BD00BFB0000020000801403C0000202C
:10174C006766666680B400AF0B4B5B68012B0ED1ED
:10175C00094B00225A60094B1B680133074A13607E
:10176C00064B1B68632B02DD044B01221A6000BF81
:10177C00BD4680BC704700BF740000203C000020B8
:10178C0080B400AF054B1A68054B1B68D31A054A89
:10179C00136000BFBD4680BC704700BF3C000020FA
:1017AC00440000204000002080B500AFFFF7CAFFC6
:1017BC00064B1B68012B07D14FF4FA7000F008F8A8
:1017CC00FFF716FFFFF756FF00BF80BDB8000020E3
:1017DC0080B483B000AF78607B68084A82FB031248
:1017EC009210DB17D31A064A1360064B00221A60BC
:1017FC0000BF0C37BD4680BC704700BF676666668D
:10180C00B4000020B800002080B483B000AF786032
:10181C007B68084A82FB03129210DB17D31A064A24
:10182C001360064B00221A6000BF0C37BD4680BC0B
:10183C00704700BF67666666BC000020C0000020D1
:10184C0080B483B000AF78607B68084A82FB0312D7
:10185C009210DB17D31A064A1360064B00221A604B
:10186C0000BF0C37BD4680BC704700BF676666661C
:10187C00C4000020C800002080B400AF194B1B68C6
:10188C00002B0BDD174B1B68013B164A1360154BE5
:10189C001B68002B02DC144B01221A60134B1B68D3
:1018AC00002B0BDD114B1B68013B104A13600F4BD7
:1018BC001B68002B02DC0E4B01221A600D4B1B68BF
:1018CC00002B0BDD0B4B1B68013B0A4A1360094BC9
:1018DC001B68002B02DC084B01221A6000BFBD46BE
:1018EC0080BC7047B4000020B8000020BC00002071
:1018FC00C0000020C4000020C800002080B485B0C7
:10190C0000AF154B9B69144A43F001039361124BD2
:10191C009B6903F00103BB60BB680F4BDB690E4A8C
:10192C0043F08053D3610C4BDB6903F080537B6035
:10193C007B680A4B5B68FB60FB6823F0E063FB6031
:10194C00FB6843F08063FB60044AFB68536000BF94
:10195C001437BD4680BC70470010024000000140A7
:10196C0080B584B000AF78607B681B68B3F1804FA2
:10197C0013D10C4BDB690B4A43F00103D361094BC8
:10198C00DB6903F00103FB60FB68002200211C20D3
:10199C0000F07DFA1C2000F096FA00BF1037BD460F
:1019AC0080BD00BF0010024080B400AFFEE780B4E1
:1019BC0000AFFEE780B400AFFEE780B400AFFEE7F7
:1019CC0080B400AFFEE780B400AF00BFBD4680BC62
:1019DC00704780B400AF00BFBD4680BC704780B478
:1019EC0000AF00BFBD4680BC704780B500AF00F0B3
:1019FC005BF900BF80BD000080B500AF024801F06C
:101A0C00C3F800BF80BD00BFD000002080B400AF81
:101A1C0000BFBD4680BC704780B500AF1D4B1B6836
:101A2C00002B26D11B4B01221A6000224FF480613F
:101A3C00194800F0F4FB00224FF40051164800F056
:101A4C00EEFB00224FF40061134800F0E8FB00228B
:101A5C004FF48051104800F0E2FB00224FF480411B
:101A6C000D4800F0DCFB00224FF400410A4800F066
:101A7C00D6FB084B1B68012B09D14FF400610648BB
:101A8C0000F0E5FB4FF48041034800F0E0FB00BFA1
:101A9C0080BD00BF900000200008014080B500AF61
:101AAC002E4B1B68002B23D1002240212C4800F028
:101ABC00B6FB012280212A4800F0B1FB00224FF432
:101ACC008071274800F0ABFB01224FF400712448D1
:101ADC0000F0A5FB234B1B68234A82FB03129210D8
:101AEC00DB17D31A1846FEF7F3FB0020FEF780FD38
:101AFC001A4B1B68012B28D101224021184800F0F9
:101B0C008EFB00228021164800F089FB01224FF445
:101B1C008071134800F083FB00224FF400711048D1
:101B2C0000F07DFB0F4B1A680F4B83FB02139910CF
:101B3C00D317C91A0B469B000B445B00D11A0846FD
:101B4C00FEF7C6FB0420FEF753FD044B1B68C3F1E4
:101B5C000103024A136000BF80BD00BFCC0000200F
:101B6C0000080140440000206766666680B400AF40
:101B7C000B4B5B68012B0ED1094B00225A60094BB1
:101B8C001B680133074A1360064B1B68632B02DD8D
:101B9C00044B01221A6000BFBD4680BC704700BFD9
:101BAC00740000204400002080B500AFFFF7DEFF7A
:101BBC00064B1B68012B07D14FF4FA70FFF708FE98
:101BCC00FFF72AFFFFF76AFF00BF80BDB8000020B7
:101BDC000C480D490D4A002302E0D458C45004337C
:101BEC00C4188C42F9D30A4A0A4C002301E0136052
:101BFC000432A242FBD3FFF709FF01F00DFBFFF704
:101C0C0075F870470000002058000020BC32000816
:101C1C00580000201C010020FEE7000080B500AF3A
:101C2C00084B1B68074A43F010031360032000F0B5
:101C3C0023F90F2000F008F8FFF760FE0023184688
:101C4C0080BD00BF0020024080B582B000AF78603C
:101C5C00124B1A68124B1B7819464FF47A73B3FB6C
:101C6C00F1F3B2FBF3F3184600F03BF90346002BFB
:101C7C0001D001230EE07B680F2B0AD80022796873
:101C8C004FF0FF3000F003F9064A7B681360002325
:101C9C0000E0012318460837BD4680BD4C000020EB
:101CAC00540000205000002080B400AF054B1B787E
:101CBC001A46054B1B681344034A136000BFBD460C
:101CCC0080BC7047540000201801002080B400AF85
:101CDC00024B1B681846BD4680BC7047180100209B
:101CEC0080B485B000AF78607B6803F00703FB60BD
:101CFC000C4BDB68BB60BA684FF6FF031340BB604C
:101D0C00FB681A02BB68134343F0BF6343F4003310
:101D1C00BB60044ABB68D36000BF1437BD4680BCAF
:101D2C00704700BF00ED00E080B400AF044BDB68EF
:101D3C001B0A03F007031846BD4680BC704700BF62
:101D4C0000ED00E080B483B000AF0346FB7197F95F
:101D5C000730002B0BDBFB7903F01F02064997F9C8
:101D6C0007305B09012000FA02F241F8232000BF82
:101D7C000C37BD4680BC704700E100E080B483B0F6
:101D8C0000AF03463960FB7197F90730002B0ADB73
:101D9C003B68DAB20C4997F907301201D2B20B4406
:101DAC0083F800230AE03B68DAB20849FB7903F0B8
:101DBC000F03043B1201D2B20B441A7600BF0C374E
:101DCC00BD4680BC704700BF00E100E000ED00E0C4
:101DDC0080B489B000AFF860B9607A60FB6803F03A
:101DEC000703FB61FB69C3F10703042B28BF042322
:101DFC00BB61FB690433062B02D9FB69033B00E092
:101E0C0000237B614FF0FF32BB6902FA03F3DA4324
:101E1C00BB681A407B699A404FF0FF317B6901FA2D
:101E2C0003F3D9437B680B40134318462437BD4654
:101E3C0080BC704780B582B000AF78607B68013B96
:101E4C00B3F1807F01D301230FE00A4A7B68013B89
:101E5C0053600F214FF0FF30FFF790FF054B00222E
:101E6C009A60044B07221A60002318460837BD46B7
:101E7C0080BD00BF10E000E080B582B000AF78609C
:101E8C007868FFF72DFF00BF0837BD4680BD80B5D1
:101E9C0086B000AF0346B9607A60FB7300237B61A8
:101EAC00FFF742FF78617A68B9687869FFF790FFAD
:101EBC00024697F90F3011461846FFF75FFF00BF37
:101ECC001837BD4680BD80B582B000AF0346FB71AC
:101EDC0097F907301846FFF735FF00BF0837BD46A6
:101EEC0080BD80B582B000AF78607868FFF7A2FF44
:101EFC00034618460837BD4680BD000080B48BB041
:101F0C0000AF7860396000237B6200233B6248E1BC
:101F1C0001227B6A02FA03F3FB613B681B68FA69D6
:101F2C001340BB61BA69FB699A4240F037813B6848
:101F3C005B68A34A93425ED0A14A934275D8A14AEA
:101F4C00934258D09F4A93426FD89F4A934252D0A3
:101F5C009D4A934269D89D4A93424CD09B4A9342E6
:101F6C0063D89B4A934246D0994A93425DD8122B30
:101F7C002AD8122B59D801A252F823F003200008BA
:101F8C00DD1F0008EF1F0008312000083720000873
:101F9C0037200008372000083720000837200008B9
:101FAC0037200008372000083720000837200008A9
:101FBC003720000837200008372000083720000899
:101FCC00E51F0008F91F0008824A934213D02CE049
:101FDC003B68DB683B6229E03B68DB6804333B62AF
:101FEC0024E03B68DB6808333B621FE03B68DB683E
:101FFC000C333B621AE03B689B68002B02D1042334
:10200C003B6213E03B689B68012B05D108233B62C4
:10201C007B68FA691A6109E008233B627B68FA69FC
:10202C005A6103E000233B6200E000BFBB69FF2B59
:10203C0001D87B6801E07B6804337B61BB69FF2BB3
:10204C0002D87B6A9B0002E07B6A083B9B003B61E9
:10205C007B691A680F213B6901FA03F3DB431A40D1
:10206C00396A3B6901FA03F31A437B691A603B68CE
:10207C005B6803F08053002B00F09080564B9B69FB
:10208C00554A43F001039361534B9B6903F00103E1
:10209C00BB60BB68514A7B6A9B08023352F8233001
:1020AC00FB607B6A03F003039B000F2202FA03F32D
:1020BC00DB43FA681340FB607B68494A93420DD0BE
:1020CC007B68484A934207D07B68474A934201D1C8
:1020DC00022304E0032302E0012300E000237A6AD8
:1020EC0002F0030292009340FA681343FB603B49F1
:1020FC007B6A9B080233FA6841F823203B685B68D3
:10210C0003F48033002B06D0384B1A683749BB696F
:10211C0013430B6006E0354B1A68BB69DB4333494C
:10212C0013400B603B685B6803F40033002B06D054
:10213C002E4B5A682D49BB6913434B6006E02B4B61
:10214C005A68BB69DB43294913404B603B685B68A9
:10215C0003F48013002B06D0244B9A682349BB69E7
:10216C0013438B6006E0214B9A68BB69DB431F4924
:10217C0013408B603B685B6803F40013002B06D0A4
:10218C001A4BDA681949BB691343CB6006E0174B4D
:10219C00DA68BB69DB4315491340CB607B6A0133BA
:1021AC007B623B681A687B6A22FA03F3002B7FF48C
:1021BC00AFAE00BF00BF2C37BD4680BC704700BF20
:1021CC00000032100000311000002210000021101D
:1021DC00000012100000111000100240000001401D
:1021EC0000080140000C01400010014000040140B7
:1021FC0080B485B000AF78600B467B807B689A68B2
:10220C007B881340002B02D00123FB7301E00023D9
:10221C00FB73FB7B18461437BD4680BC704780B4FB
:10222C0083B000AF78600B467B8013467B707B7865
:10223C00002B03D07A887B681A6103E07B881A0430
:10224C007B681A6100BF0C37BD4680BC704780B4F8
:10225C0085B000AF78600B467B807B68DB68FB60E9
:10226C007A88FB6813401A04FB68D9437B880B40BF
:10227C001A437B681A6100BF1437BD4680BC704797
:10228C0080B586B000AF78607B68002B01D101234C
:10229C006CE27B681B6803F00103002B00F0878065
:1022AC00924B5B6803F00C03042B0CD08F4B5B68D8
:1022BC0003F00C03082B12D18C4B5B6803F48033B6
:1022CC00B3F5803F0BD1894B1B6803F40033002B13
:1022DC006CD07B685B68002B68D1012346E27B687D
:1022EC005B68B3F5803F06D1804B1B687F4A43F493
:1022FC00803313602EE07B685B68002B0CD17B4B2A
:10230C001B687A4A23F480331360784B1B68774A36
:10231C0023F4802313601DE07B685B68B3F5A02F6A
:10232C000CD1724B1B68714A43F4802313606F4BC2
:10233C001B686E4A43F4803313600BE06B4B1B68D5
:10234C006A4A23F480331360684B1B68674A23F492
:10235C00802313607B685B68002B13D0FFF7B6FCFF
:10236C00386108E0FFF7B2FC02463B69D31A642BD4
:10237C0001D90323FAE15D4B1B6803F40033002BF6
:10238C00F0D014E0FFF7A2FC386108E0FFF79EFCE8
:10239C0002463B69D31A642B01D90323E6E1534B64
:1023AC001B6803F40033002BF0D100E000BF7B6806
:1023BC001B6803F00203002B63D04C4B5B6803F0EB
:1023CC000C03002B0BD0494B5B6803F00C03082B60
:1023DC001CD1464B5B6803F48033002B16D1434B66
:1023EC001B6803F00203002B05D07B681B69012BD3
:1023FC0001D00123BAE13D4B1B6823F0F8027B6846
:10240C005B69DB00394913430B603AE07B681B695D
:10241C00002B20D0364B01221A60FFF757FC386195
:10242C0008E0FFF753FC02463B69D31A022B01D993
:10243C0003239BE12D4B1B6803F00203002BF0D010
:10244C002A4B1B6823F0F8027B685B69DB00274989
:10245C0013430B6015E0264B00221A60FFF736FC85
:10246C00386108E0FFF732FC02463B69D31A022BB5
:10247C0001D903237AE11D4B1B6803F00203002BE7
:10248C00F0D17B681B6803F00803002B3AD07B6803
:10249C009B69002B19D0174B01221A60FFF716FC11
:1024AC00386108E0FFF712FC02463B69D31A022B95
:1024BC0001D903235AE10D4B5B6A03F00203002B95
:1024CC00F0D0012000F0A6FA1CE00A4B00221A60A2
:1024DC00FFF7FCFB38610FE0FFF7F8FB02463B69A6
:1024EC00D31A022B08D9032340E100BF001002408D
:1024FC0000004242800442429E4B5B6A03F002039E
:10250C00002BE9D17B681B6803F00403002B00F05F
:10251C00A6800023FB75974BDB6903F08053002BDF
:10252C000DD1944BDB69934A43F08053D361914BAB
:10253C00DB6903F08053BB60BB680123FB758E4BDA
:10254C001B6803F48073002B18D18B4B1B688A4AD1
:10255C0043F480731360FFF7B9FB386108E0FFF7B1
:10256C00B5FB02463B69D31A642B01D90323FDE06A
:10257C00814B1B6803F48073002BF0D07B68DB6805
:10258C00012B06D17B4B1B6A7A4A43F00103136281
:10259C002DE07B68DB68002B0CD1764B1B6A754AEF
:1025AC0023F001031362734B1B6A724A23F004037A
:1025BC0013621CE07B68DB68052B0CD16D4B1B6A2E
:1025CC006C4A43F0040313626A4B1B6A694A43F07A
:1025DC00010313620BE0674B1B6A664A23F001038D
:1025EC001362644B1B6A634A23F0040313627B6817
:1025FC00DB68002B15D0FFF769FB38610AE0FFF7A9
:10260C0065FB02463B69D31A41F28832934201D9E9
:10261C000323ABE0574B1B6A03F00203002BEED0F5
:10262C0014E0FFF753FB38610AE0FFF74FFB02465B
:10263C003B69D31A41F28832934201D9032395E0C6
:10264C004C4B1B6A03F00203002BEED1FB7D012BDC
:10265C0005D1484BDB69474A23F08053D3617B6833
:10266C00DB69002B00F08180424B5B6803F00C03AC
:10267C00082B61D07B68DB69022B46D13F4B0022D3
:10268C001A60FFF723FB386108E0FFF71FFB0246D7
:10269C003B69D31A022B01D9032367E0354B1B6826
:1026AC0003F00073002BF0D17B681B6AB3F5803FFD
:1026BC0008D1304B5B6823F400327B689B682D4952
:1026CC0013434B602B4B5B6823F474127B68196AC1
:1026DC007B685B6A0B43274913434B60274B0122F2
:1026EC001A60FFF7F3FA386108E0FFF7EFFA0246D9
:1026FC003B69D31A022B01D9032337E01D4B1B680E
:10270C0003F00073002BF0D02FE01C4B00221A605A
:10271C00FFF7DCFA386108E0FFF7D8FA02463B69AC
:10272C00D31A022B01D9032320E0124B1B6803F0B0
:10273C000073002BF0D118E07B68DB69012B01D111
:10274C00012313E00B4B5B68FB60FB6803F48032E6
:10275C007B681B6A9A4206D1FB6803F470127B6893
:10276C005B6A9A4201D0012300E000231846183717
:10277C00BD4680BD00100240007000406000424227
:10278C0080B584B000AF786039607B68002B01D1D4
:10279C000123D0E06A4B1B6803F007033A689A42A6
:1027AC0010D9674B1B6823F0070265493B6813433C
:1027BC000B60634B1B6803F007033A689A4201D025
:1027CC000123B8E07B681B6803F00203002B20D0C8
:1027DC007B681B6803F00403002B05D0594B5B6826
:1027EC00584A43F4E06353607B681B6803F00803AA
:1027FC00002B05D0534B5B68524A43F46053536033
:10280C00504B5B6823F0F0027B689B684D49134387
:10281C004B607B681B6803F00103002B40D07B6886
:10282C005B68012B07D1474B1B6803F40033002B6B
:10283C0015D101237FE07B685B68022B07D1414BEC
:10284C001B6803F00073002B09D1012373E03D4B8F
:10285C001B6803F00203002B01D101236BE0394B01
:10286C005B6823F003027B685B68364913434B605B
:10287C00FFF72CFAF8600AE0FFF728FA0246FB682B
:10288C00D31A41F28832934201D9032353E02D4BE2
:10289C005B6803F00C027B685B689B009A42EBD18F
:1028AC00274B1B6803F007033A689A4210D2244B5B
:1028BC001B6823F0070222493B6813430B60204B33
:1028CC001B6803F007033A689A4201D0012332E0F7
:1028DC007B681B6803F00403002B08D0194B5B6862
:1028EC0023F4E0627B68DB68164913434B607B681A
:1028FC001B6803F00803002B09D0124B5B6823F410
:10290C0060527B681B69DB000E4913434B6000F07F
:10291C0021F802460B4B5B681B0903F00F030A49B5
:10292C00CB5C22FA03F3094A1360094B1B68184667
:10293C00FFF78AF9002318461037BD4680BD00BF4B
:10294C000020024000100240A43200084C0000207D
:10295C005000002090B48AB000AF2A4B3C1D0FCB26
:10296C0084E80F0040F201233B800023FB6100232D
:10297C00BB6100237B6200237B6100233B62224B03
:10298C005B68FB61FB6903F00C03042B02D0082B82
:10299C0003D02DE01D4B3B622DE0FB699B0C03F03B
:1029AC000F0307F12802134413F8243C7B61FB69E5
:1029BC0003F48033002B13D0134B5B685B0C03F0D8
:1029CC00010307F12802134413F8283CBB617B690F
:1029DC000E4A02FB03F2BB69B2FBF3F37B6204E029
:1029EC007B690B4A02FB03F37B627B6A3B6202E06E
:1029FC00064B3B6200BF3B6A18462837BD4690BC6D
:102A0C00704700BF943200080010024000127A0098
:102A1C0000093D0080B485B000AF78600A4B1B689C
:102A2C000A4AA2FB03235B0A7A6802FB03F3FB60EE
:102A3C0000BFFB685A1EFA60002BF9D100BF00BF23
:102A4C001437BD4680BC70474C000020D34D62103B
:102A5C0080B582B000AF78607B68002B01D1012378
:102A6C0041E07B6893F83D30DBB2002B06D17B68EC
:102A7C00002283F83C207868FEF772FF7B68022204
:102A8C0083F83D207B681A687B680433194610462E
:102A9C0000F06AFA7B68012283F846207B680122E9
:102AAC0083F83E207B68012283F83F207B6801225B
:102ABC0083F840207B68012283F841207B68012247
:102ACC0083F842207B68012283F843207B68012233
:102ADC0083F844207B68012283F845207B6801221F
:102AEC0083F83D20002318460837BD4680BD000002
:102AFC0080B485B000AF78607B6893F83D30DBB272
:102B0C00012B01D0012335E07B68022283F83D20A4
:102B1C007B681B68DA687B681B6842F00102DA602C
:102B2C007B681B68164A934209D07B681B68B3F11B
:102B3C00804F04D07B681B68124A934211D17B688A
:102B4C001B689B6803F00703FB60FB68062B10D027
:102B5C007B681B681A687B681B6842F001021A606C
:102B6C0007E07B681B681A687B681B6842F00102EF
:102B7C001A60002318461437BD4680BC704700BF4E
:102B8C00002C01400004004080B582B000AF78609A
:102B9C007B681B681B6903F00203022B22D17B6844
:102BAC001B68DB6803F00203022B1BD17B681B68DC
:102BBC006FF002021A617B6801221A777B681B682E
:102BCC009B6903F00303002B03D0786800F0B1F984
:102BDC0005E0786800F0A4F9786800F0B3F97B6838
:102BEC0000221A777B681B681B6903F00403042B13
:102BFC0022D17B681B68DB6803F00403042B1BD118
:102C0C007B681B686FF004021A617B6802221A77DA
:102C1C007B681B689B6903F44073002B03D07868B6
:102C2C0000F087F905E0786800F07AF9786800F030
:102C3C0089F97B6800221A777B681B681B6903F093
:102C4C000803082B22D17B681B68DB6803F00803A0
:102C5C00082B1BD17B681B686FF008021A617B681C
:102C6C0004221A777B681B68DB6903F00303002BD3
:102C7C0003D0786800F05DF905E0786800F050F951
:102C8C00786800F05FF97B6800221A777B681B6814
:102C9C001B6903F01003102B22D17B681B68DB68C7
:102CAC0003F01003102B1BD17B681B686FF0100214
:102CBC001A617B6808221A777B681B68DB6903F44E
:102CCC004073002B03D0786800F033F905E0786886
:102CDC0000F026F9786800F035F97B6800221A7745
:102CEC007B681B681B6903F00103012B0ED17B6809
:102CFC001B68DB6803F00103012B07D17B681B68A1
:102D0C006FF001021A617868FEF7F8F87B681B68AF
:102D1C001B6903F08003802B0ED17B681B68DB687A
:102D2C0003F08003802B07D17B681B686FF0800257
:102D3C001A61786800F067FA7B681B681B6903F0FE
:102D4C004003402B0ED17B681B68DB6803F040030B
:102D5C00402B07D17B681B686FF040021A617868C2
:102D6C0000F0F9F87B681B681B6903F02003202B2B
:102D7C000ED17B681B68DB6803F02003202B07D186
:102D8C007B681B686FF020021A61786800F032FAD9
:102D9C0000BF0837BD4680BD80B584B000AF7860F9
:102DAC0039607B6893F83C30012B01D10223B3E0EE
:102DBC007B68012283F83C207B68022283F83D204B
:102DCC007B681B689B68FB60FB6823F07703FB60E8
:102DDC00FB6823F47F43FB607B681B68FA689A608E
:102DEC003B681B68B3F5005F3ED0B3F5005F00F2A3
:102DFC008780B3F5805F00F08580B3F5805F7FD866
:102E0C00702B1AD0702B7BD8602B50D0602B77D8BE
:102E1C00502B3CD0502B73D8402B58D0402B6FD814
:102E2C00302B64D0302B6BD8202B60D0202B67D864
:102E3C00002B5CD0102B5AD062E07B6818683B6882
:102E4C0099683B685A683B68DB6800F05CF97B6802
:102E5C001B689B68FB60FB6843F07703FB607B6837
:102E6C001B68FA689A604EE07B6818683B68996842
:102E7C003B685A683B68DB6800F045F97B681B6867
:102E8C009A687B681B6842F480429A603BE07B68DE
:102E9C0018683B6859683B68DB681A4600F0BCF858
:102EAC007B681B685021184600F013F92BE07B68F7
:102EBC0018683B6859683B68DB681A4600F0DAF81A
:102ECC007B681B686021184600F003F91BE07B68E7
:102EDC0018683B6859683B68DB681A4600F09CF838
:102EEC007B681B684021184600F0F3F80BE07B6808
:102EFC001A683B681B681946104600F0EAF802E0B5
:102F0C0000BF00E000BF7B68012283F83D207B6896
:102F1C00002283F83C20002318461037BD4680BDA4
:102F2C0080B483B000AF786000BF0C37BD4680BC66
:102F3C00704780B483B000AF786000BF0C37BD46DB
:102F4C0080BC704780B483B000AF786000BF0C3792
:102F5C00BD4680BC704780B483B000AF786000BFC2
:102F6C000C37BD4680BC704780B485B000AF78602C
:102F7C0039607B681B68FB607B68254A934207D0ED
:102F8C007B68B3F1804F03D07B68224A934208D10F
:102F9C00FB6823F07003FB603B685B68FA681343C3
:102FAC00FB607B681A4A934207D07B68B3F1804F71
:102FBC0003D07B68174A934208D1FB6823F4407313
:102FCC00FB603B68DB68FA681343FB60FB6823F02B
:102FDC0080023B685B691343FB607B68FA681A608C
:102FEC003B689A687B68DA623B681A687B689A620D
:102FFC007B68074A934203D13B681A697B681A6362
:10300C007B6801225A6100BF1437BD4680BC7047F3
:10301C00002C01400004004080B487B000AFF86081
:10302C00B9607A60FB681B6A7B61FB681B6A23F0E2
:10303C000102FB681A62FB689B693B613B6923F0E8
:10304C00F0033B617B681B013A6913433B617B696D
:10305C0023F00A037B617A69BB6813437B61FB68CD
:10306C003A699A61FB687A691A6200BF1C37BD46DF
:10307C0080BC704780B487B000AFF860B9607A60EC
:10308C00FB681B6A23F01002FB681A62FB689B69E1
:10309C007B61FB681B6A3B617B6923F470437B613A
:1030AC007B681B037A6913437B613B6923F0A003A4
:1030BC003B61BB681B013A6913433B61FB687A694E
:1030CC009A61FB683A691A6200BF1C37BD4680BC26
:1030DC00704780B485B000AF786039607B689B68BE
:1030EC00FB60FB6823F07003FB603A68FB681343DA
:1030FC0043F00703FB607B68FA689A6000BF1437E3
:10310C00BD4680BC704780B487B000AFF860B96032
:10311C007A603B60FB689B687B617B6923F47F432F
:10312C007B613B681A027B681A43BB6813437A695C
:10313C0013437B61FB687A699A6000BF1C37BD46FC
:10314C0080BC704780B485B000AF786039607B6814
:10315C0093F83C30012B01D1022341E07B68012222
:10316C0083F83C207B68022283F83D207B681B6837
:10317C005B68FB607B681B689B68BB60FB6823F02B
:10318C007003FB603B681B68FA681343FB607B6849
:10319C001B68FA685A607B681B68144A934209D012
:1031AC007B681B68B3F1804F04D07B681B68104AA6
:1031BC0093420CD1BB6823F08003BB603B685B6817
:1031CC00BA681343BB607B681B68BA689A607B68FB
:1031DC00012283F83D207B68002283F83C200023E9
:1031EC0018461437BD4680BC704700BF002C014008
:1031FC000004004080B483B000AF786000BF0C378F
:10320C00BD4680BC704780B483B000AF786000BF0F
:10321C000C37BD4680BC704770B500260C4D0D4C6C
:10322C00641BA410A64209D100F022F800260A4D16
:10323C000A4C641BA410A64205D170BD55F8043B82
:10324C0098470136EEE755F8043B98470136F2E70C
:10325C00B4320008B4320008B4320008B8320008A6
:10326C0003460244934200D1704703F8011BF9E76F
:10327C00F8B500BFF8BC08BC9E467047F8B500BF57
:08328C00F8BC08BC9E46704727
:1032940002030405060708090A0B0C0D0E0F101093
:1032A40000000000000000000102030406070809F2
:0432B40031010008DC
:0432B8000D010008FC
:1032BC0001000000010000000100000001000000FE
:1032CC0001000000010000000100000001000000EE
:1032DC0001000000010000000100000001000000DE
:1032EC0064000000640000006400000005000000A1
:1032FC000300000002000000FFFFFFFF0024F400A9
:08330C001000000001000000A8
:0400000508001BDDF7
:00000001FF
